:020000041000EA
:4000000000400208230100100D00000085010010000000000000000000000000000000000000000000000000000000008101001000000000000000008101001081010010E9
:400040008101001081010010810100108101001081010010810100108101001081010010810100108101001081010010810100108101001081010010810100108101001060
:400080008101001081010010810100108101001081010010810100108101001081010010810100108101001081010010810100108101001081010010810100108101001020
:4000C00010B5064C2378002B07D1054B002B02D0044800E000BF0123237010BD3406000800000000E82F0010084B10B5002B03D00749084800E000BF07480368002B00D11B
:4001000010BD064B002BFBD09847F9E70000000038060008E82F0010E4000008000000007047FFF7FDFF72B60F4C104DAC4209DA21686268A368043B02DBC858D050FAE79E
:400140000C34F3E70A490B4A0020521A02DD043A8850FCDC084809490860BFF34F8F00F0FFF800F01DF8FEE7EC2F001004300010340600080C0800080000000808ED00E04F
:40018000FEE7FEE700B504207146084202D0EFF3098001E0EFF30880043001F035FBFEE710B562B6014800F061F9FEE70000081010B5002001F0A4F810BDC04670B55F495A
:4001C000E0239B00CB580F2213401A00D0329200525807210A4002D0042A02D00FE0584811E01A00C0329200544952581F210A40112A06D0132A04D0FA20C00103E05148B6
:4002000001E080200002002B36D14C4BB222D2009A5801211140B125ED005A59120F032422405B591B0F1C4207D0444C63591B0F03242340012B02D102E0012300E000232C
:40024000002B01D0002901D1032A4BD13B4BB022D2009D58AD03AD0B3B495958C904C90C9C58240E01231C40013401F041FE6843210001F03DFE35E0012B33D12F4BC82234
:40028000D2009A5801251540C024E4001A59120F03210A401B591B0F194207D027490B591B0F03210B40012B02D102E0012300E00023002B01D0002D01D1032A12D11F4D79
:4002C000C022D200AB587F210B40A958090A1F263140AC58240C3440584301F009FE210001F006FEE0239B00144AD3581B0903221340D840154C2060154B1D692D0AFC323A
:40030000154001351969090E013101F0F1FD6060290001F0EDFD0500A060E0600D4BC0180D4901F0E5FD20740C4BE818FA21890001F0DEFD6061C003A06170BD00002640B3
:4003400000127A0000366E0184050000C0000008000021403F420F0040420F00E703000010B5284801F0BEFD274CB022D200A3585B005B08A350E021890063583020834390
:40038000635080235B04A350204A214BE250A02292010433E250FF221E4BE25001F090FDC0225200A35801218B43A35000F084FAFFF704FFB0235B055B78002B04D0B02344
:4003C0005B055B78DBB200E02123212B03D1124B0022DA605A60114C22008021042000F035FD2000103000F0C9FD0D4B1A685123D35C002B02D00B4800F036FE00F0FEFB30
:4004000010BDC046302F00100000264001000200840500008C050000E00023405006000808080008682000108023024AD3580320184070470000214010B501F076FA084982
:4004400080228C58074B2340074C23438B508823034AD358DB06FAD501F06BFA10BDC04600002140FCFF00000100FA0570B50500830504D0E821FF310F4801F097F901F0CD
:4004800054FA0400FFF7D0FF032801D1FFF7D4FF0A4AB0239B00D55080215058084B03400848034353508823044AD358DB06FAD5200001F03EFA70BD9C20001000002140E9
:4004C000FCFF00000300FA05FEE7C046F0B50025002711E0BB00C658F3B2FF22964308E06A008A181478A419527822700135013BDBB2002BF4D10137002FEBD0F0BDC0465D
:4005000080221206054B1A603823054A1360054A1360054A054B1A607047C04600001D4100031D4144031D4101001180000E1F4110B50A00002101F070FD10BD10B501F04D
:4005400063FD10BD70B586B0C949A022D2008B58032083438B50C74A116808688823CB58C3181868C449084018601368186884241B59C01803681B021B0A80256D042B4396
:400580000360106805680359EB1818680140196013683E229A5C002A06D0B548E02189004258753CA24342503E229A5C002A06D0AF48E021890042583024A24342503E22A4
:4005C0009B5C002B07D0AA49E02292008B588020000603438B500021012000F0C3FE0021022000F0BFFE0021032000F0BBFE0021042000F0B7FE0021002000F0B3FE01A88C
:400600009E4903000A0032CA32C312CA12C300F0D7FE002802D00420FFF756FF9449984A8B588020000603438B50964800F084FF002802D00420FFF747FF8D4C924BE158F3
:40064000924A0A40E250E158914A0A40E250E25880252D062A43E250043BE1588D4A0A40E250E1588C4A0A40802189010A43E250E258802109020A43E250884A1168884B90
:400680000B40802149000B431360002001F08EFB844BE2581543E550E158012291430A43E2506421002001F0C7F8724B1B683F229A5C052A06D970229A5C04210A407A49B1
:4006C000986842509A6874215B5AD21811696A4B0B408C2189010B431361664B1B6873229A5C0321914070229A5C7220185C140084402143042002400A43802109060A4391
:400700008021C900986842509A6852583F229A5C132A03D90021654A986881509A6874215B5AD2181168544B0B408021C9000B431360504B1B687322985C703A8240100019
:4007400070229A5C72241C5DA2400243802000060243986842509A6852583F229A5C142A07D970229A5C02210A40C5210901986842509A6874215B5AD21891683E4B0B40A3
:400780008021C9000B4393603A4B1B6873229A5C0320904070229A5C72241C5D1500A5402843022422400243802000060243986842509A6852583F229A5C152A06D970220F
:4007C0009A5C03210A403A49986842509A6874215B5AD218D168284B0B408021C9000B43D360244B1B6873229A5C03242500954070229A5C7220185C1600864030002843C5
:4008000022400243802000060243986842509A6852583F229A5C392A06D970229A5C01210A402449986842509A6874215B5AD2185168114B0B408021C9000B4353600D4B03
:400840001A687323D35C032098407023D35C7224145D1D00A54028430124234003438020000603439068435093685B5806B070BD0000264008080008FF00FFFFB4200010CB
:40088000087F0000400D030004050000FEFCFFFFFFFF00FFFFF0FFFFFF8FFFFF00002740FFFCFFFF0C050000140C00004C0C0000540C0000E40C000070B58AB0962100207B
:4008C00000F0BAFF00F090FF002814D100F07CFFC0235B005A4AD358DB0705D41100594A8B585B005B088B505549564A8B588020000603438B50012001F0F0F9524A516C24
:40090000524B0B40E82189010B435364536C1B0AFF2213403A2B07D14B4A516C4C4B0B40E82189010B4353640023002249494A4801F05AFA012300224849494801F054FA81
:40094000002300224749484801F04EFA012300228021C905322001F047FA012300224349434801F041FAFFF7EDFD424A424B1A6000240CE0620012195300404AD318198B9B
:400980009A8AD88A00041043FFF7D2FD01340B2CF0D900240AE0620012199300374AD3185A6E196ED86DFFF7C9FD0134112CF2D9334C2100343120003830FFF787FD01230E
:4009C000304A1360304A1360304A1368812149000B43136001AD24220021280001F01DFBC023DB01EB602900294800F00FF92A0023003C3343CB43C243CB43C243CB43C2A5
:400A00002900244800F002F92A002300603313CB13C213CB13C213CB13C229001E4800F0F5F824220021280001F0F7FA3823019329001A4800F0EAF8FFF762FD0AB070BDD8
:400A4000000026400C05000000002740FF00FFFFFFC5FFDF0F0E0040110E0000000600402A060000070E0040150E0000050A0040010A00000300FA05F0012140B4200010FD
:400A8000B421001004793440087934400079344000003240800232400003324000053240214B984230D00ED8402831D004D800281FD010282AD031E080282BD080235B00C0
:400AC000984229D02AE0194B984229D007D8A0231B0698420DD0164B984212D01EE0154B98420AD0144B984209D0144B984215D101E0002016E0124814E0124812E012481D
:400B000010E0A020C0030DE007480BE00F4809E00F4807E00F4805E0034803E00E4801E0A420C0037047C04606005200010000F0090000A0040000F0050000F0030000F0EA
:400B4000010052000200520003005200010050000200500005005200FF00520070B5124B1A683123D35C002B04D1C421FF310F4800F01CFE0C4B1D682C00B423EB582A6A7B
:400B8000944663441B68002B0BDB094B1868FFF787FF6B6801229A6063689B68002BFBD100E0044870BDC04608080008682B0010E00700080200500010B50D4B1861002802
:400BC00005D002230370FD33437000234380094B1B6850229A5C002A08D051229B5C002B04D04F3A0449002000F0F8FA10BDC046E0070008080800085D01000810B50248EE
:400C00001430FFF7D9FF10BDE007000870B505000C0000285DD000295DD0FF230A689A4303D099212D4800F0C1FDFF2322699A4303D09A21294800F0B9FDA3685B0D03D06F
:400C40009B21264800F0B2FD63685B0A03D09C21224800F0ABFDE3695B0F03D09D211F4800F0A4FD236A5B0F03D09E211B4800F09DFD1B4A11688B69EB1ADB0949691B01AB
:400C8000CB18216829607D211068415C6918E06808607E211068415C6918206908607F211068415C6918606908607C211068415C6918A06808606168A961116880228A5C57
:400CC000AD18A2692A60E2691A60226A5A60002002E0044800E0034870BDC046A82B00100808000801005A0070B504000D000A4B1A68B423D3581B181B68002B0ADA0B0CA2
:400D000003D00649064800F051FD2D042D0C6560002000E0034870BD08080008D5020000282C001001008A0070B505000C000368002B01DA002300E0084B002B0BD1EA6032
:400D4000230C03D00649074800F030FD2404240CAC60002000E0014870BDC04601008A00BB020000282C001070B505000C1E03D19921084800F01AFD074B1A68B423D3581B
:400D80005B191B68002B03DAEB682360002000E0024870BD682C00100808000801008A0070B504000D00234B1A683123D35C834236D9002936D00B68DB0635D13123D35C17
:400DC000984204D3C421FF311B4800F0EFFC194B1B681A6AB0215B5A5C431419174E34602B68DA080021686801F017F900212000FFF77AFF3468002D03D111490E4800F0E5
:400E0000D5FC2A0000212000FFF78EFF00280DD10A4B18680021FFF767FF002808D108E0084806E0074804E0064802E0064800E0054870BD08080008282C0010F8070008EE
:400E40009303000003018A0001018A0010B50400002A17D1002915D1124B1A683123D35C984204D3C421FF310F4800F09FFC0D4B1B681A6AB0215B5A5C4314190B4B1C604B
:400E800000200EE0002A09D0002909D0074B59609A60191D2000FFF783FF02E0044800E0034810BD08080008282C0010F807000803018A00F0B583B00D001C4B1B68DC6802
:400EC000236883422DD947097B01C01A012383401E00002903D100F028FD019001E000230193124B18680368002B01DA002300E00F4B002B0ED16368BF00DF193B68334267
:400F000003D0B3433B60002400E00A4C0021FFF7EBFE00E0084C002D04D1019800F009FD00E0064C200003B0F0BDC046F807000801008A00020188000301880004018A003E
:400F40000A4B1B68DA68136883420BD943095901401A0121814052689B009B580B4203D0034802E0034800E003487047F80700080101880004018A0000018800034B1B6814
:400F8000002B01D1014B18607047C04604080008F0B5474680B404000F0090461E002D4B1B68002B03D1B5212B4800F0FFFB294B1B682C2060431C18FF22150035402560BB
:400FC000330A13406360360CA660244B1A683123D35C9D4204D3C421FF31214800F0E6FB1E4B1A68B023D35A6B43116A8C466344236166683223D35C9E4204D3E021FF3192
:40100000174800F0D3FB154B1B681D6A80367601AD196561A668330C04D0FF214900104800F0C4FB330C03D00E490D4800F0BEFB3604330C1E43AE604346E3612762002317
:40104000A361069B002B02D000229B5EA38104BC9046F0BD04080008A82C001008080008282C0010FF010000F0B58FB0041E03D15221294800F09AFB6368032B03D954214B
:40108000254800F093FBE36A002B03D15821224800F08CFB236B002B03D159211E4800F085FB07AA1300210061C961C321C921C302AD290023001433C1CBC1C141CB41C163
:4010C0000821535E0CAE3380144B1B6836215B5E07998C466344B370089B0D930B9B0A980096A26AE16AFFF753FF2B69E868002200920021FFF74CFF216B300000F0E8FA33
:401100000023F25E002A05DB1F231A401E3B9340034A13600FB0F0BDA82C00100808000800E100E0F8B505000F0016001C00002A03D1FD21224800F039FB224B1B68002BC9
:4011400003D1FE211E4800F031FB1E4B1B682C2128004843181879435918012213004D68AB401B044568AA4015000269002A20D08F69002F1FD11268002A01DA002200E0F3
:40118000114A002A19D132681204120C134333600369DE6001238B614C6204692B0C03D00A490B4800F002FB2A04120CA260002004E0084802E0084800E00748F8BDC046D9
:4011C000A82C00100408000801008A00BB020000282C001004028A0007028A0070B504000D0016000F4B1B68002B04D1AF2149000D4800F0DBFA0B4B1B682C2060431C18D0
:40120000236A002B04D1B1214900074800F0CEFAE369B34204D9236AB6009D51002000E0024870BD04080008A82C00100A028A0070B582B0040000230193002804D1D221A9
:40124000FF312D4800F0B2FA2369002B04D1E9214900294800F0AAFA6369002B04D1D421FF31254800F0A2FA236A002B04D1EA214900214800F09AFA6269D5682B0C24D05E
:401280001B041360136820691C4B1A68B423D358C3181B68002B18DA01A9FFF765FD00280ED1019803681E0CFF221340E269934207D29B00226AD358002B02D0984700E080
:4012C000002631002069FFF70FFD2D042D0C0FD063691D601B68636A002B03D098470023636203E0A36A002B00D098470023A36163691B6802B070BDA82C0010080800084A
:4013000010B50400084B1B68002B04D1B221FF31064800F04BFA044B1B682C2060431818FFF786FF10BDC04604080008A82C001010B50400094B1B689B6CC340DB0703D4EE
:40134000BE21074800F032FA044B1B681B691034A402E3580F20184010BDC04608080008E82C0010134B1A683C23D35C83421DD9042904D94B1EFF3B9BB2132B18D8FF2999
:401380000CD91F2319400C4A0300C0339B009950D03080000423835000200AE007231940D0308000044BC150002002E0034800E002487047080800080000264001004A00FF
:4013C00070B5041E03D14A494A4800F0EFF9B023DB00494AD358002B00DA87E0474B22689A4203D94649434800F0E0F923689B039B0BE279002A02D08022520400E0002226
:401400001343B022D2003C498B50A2883D4B9A4204D98C218900374800F0C8F922893A4B9A4203D93949334800F0C0F9A388DB04D90C23891B04364A13400B43354A2E4922
:401440008B50A37A0F2B04D98E218900294800F0ADF9E37A0F2B03D92F49264800F0A6F9A289284B9A4203D92C49224800F09EF9A37A0F211940E27A1201FF2313400B43A2
:40148000A289120226490A401343A27B1207C02189050A401343B122D20017498B50A379042B03D91F49134800F080F9228A164B9A4204D9912189000E4800F077F90E4859
:4014C00019494558194B1D40A3791B02E022D20013402B4343504558154B1D40238A1B040B4A13402B434350002000E0114870BD1F020000282D001000002640FFFF030089
:4015000029020000FF1F0000FF010000310200000000FF0184050000390200003A02000000FF1F00430200008C050000FFF8FFFFFFFF00FE03004A0070B505003149324ADD
:401540008B588020000603438B502C0003E0012000F020F9013CB223DB002A4AD3585B0701D4002CF3D12749B122D2008858274B03408020800503438B50002D01D0002CBB
:401580000CD02049B022D2008B588020000603438B5003E0012000F0FDF8013CB223DB00184AD358DB0701D4002CF3D1002D01D0002C08D01349B122D2008B58C020800543
:4015C00003438B5013E00F4BB121C90058580F4A02408020800502435A5008395A58520052085A5008495A58520052085A50002D03D0002C03D0002002E0002000E0044894
:4016000070BDC046000026408C050000FFFFFFCF02004A0070B505000C001A4B1B6828229A5C012A15D1820807211000884327D19200AD1AED00FF20A8401B6820339A189F
:401640001168AC4023004B40184004004C40146016E03A229B5EDBB2994203D176210A4800F0A4F8074B1B681B68072215408022120615438022920194466444A400E55087
:4016800070BDC04608080008B02D001070B504000D000B4B9A680B4B9A420CD1002904D13821FF31084800F081F81034054BA400E058E55003E01034A400044BE05870BDF1
:4016C00000ED00E000000008B02D001000000010F0B5474680B482B0061E01914AD04368032B03D93221264800F060F80023F05E002804DBB178FFF78DFF002400E0214C5E
:401700000023F15E7368002912DB88081E4FC0308000C55903221140C900FC3290468A4095439A01434613408B402B43C35116E089B20F220A40083A920806329200134865
:401740001018476803221140C900FF252A008A4097439A012B0013408B403B4343600B4B9A680B4B9A4206D10023F05E0199FFF78DFF00E0034C200002B004BC9046F0BD2A
:40178000B02D00100100560000E100E000ED00E00000000810B5034B1B78584300F0BCF810BDC046D000000801BEFEE770B50D00044C18220100200000F037FCA5610020F5
:4017C000FFF7F2FFF8050008054B802212069A649B6C002B01DB002000E002487047C0460000274003004600054B8022120198585B68FF221A4202D08023DB021843704797
:4018000000002640FEE7C04610B50A4B0268DA6142681A6282685A62C2689A620269DA6242691A6382695A63C2699A63FFF7EAFF10BDC046F8050008F0B5474680B40028C2
:4018400001D0192300E064238B429B415B42304D2C682268A826A45BA41822680327BA433B401A4322602C682268A45BA2181668284CA046264016602C682668AA2294462C
:40188000A25A96193268BA43134333602A6813686546525BD3181A68444614401C60002805D010291BD921291BD8012024E0184B1B6855229A5C914215D956229A5C9142F0
:4018C00013D957229A5C914211D958229A5C91420FD959229B5C99420DD804200CE000200AE0022008E0002006E0012004E0022002E0032000E00520054A1268526813681A
:401900000F218B430343136004BC9046F0BDC04608080008FFFCFFFF0230800803D001300238FCD1C046C0467047EFF3108072B6704780F31088704710B5B0235B059B89DF
:401940009BB2002B04D0B0235B059B899BB201E080235B0080225200934215D1184C23681968683A9B58C9180B680F208343963A13430B6021680C689C23CB58E3181968AF
:4019800081430A431A6019E00D4C2368196898229B58C918B02040050A4BC2580A4B13400A681343C022920013430B60226811689C23D358CB18054A82581A6010BDC04641
:4019C0000808000848180000FFFCFFFF4418000030B5B0235B059B899BB2002B04D0B0235B059B899BB201E080235B0080225200934215D1184C23681968683A9B58C9187A
:401A00000B680F208343953A13430B6021680C689C23CB58E318196881430A431A6019E00D4D2B68196898229B58C918B0246405C12040012258094B13400A681343C022A9
:401A4000920013430B602A6811689C23D358CB1822581A6030BDC04608080008FFFCFFFFB0235B059B899BB2002B04D0B0235B059B899BB201E080235B0080225200934254
:401A80000DD1104B1B681A6898215B58D21811680D4B0B40C021C9010B43136011E0094B1B68196898229B58C918084BB0225205D258074B13400A681343C0229200134356
:401AC0000B60704708080008FF8FFFFF18180000FFFCFFFF30B5B0235B059B899BB2002B04D0B0235B059B899BB201E080235B008022520093420DD1134B1B681A68982129
:401B00005B58D2181168114B0B408021C9010B43136018E00C4D2B68196898229B58C918B02464050A4822580A4B13400A681343C022920013430B602A6811689C23D35826
:401B4000CB1822581A6030BD08080008FF8FFFFF4C180000FFFCFFFF10B5B0235B059B899BB2002B04D0B0235B059B899BB201E080235B0080225200934217D10020FFF7EE
:401B8000D7FBB0235B055B78002B04D0B0235B055B78DBB200E02123222B03D8002803D1013004E0012002E0002000E0012010BDF8B50700012803D93D493E48FFF7F6FDBF
:401BC000B0235B055B78002B04D0B0235B055B78DBB200E021239DB2B0235B059B899BB2002B04D0B0235B059E89B6B201E0802676000020FFF79CFB002814D180235B00C0
:401C00009E4212D1222D12D82B4B1B685C682B4821582B4B19403B068022520413400B432350002404E0274C02E0264C00E0254C80235B009E4201D1222D03D880235B00EB
:401C40009E4232D01C4B1A683123D35C002B04D1C421FF311C48FFF7A9FD174B1B681D6A80235B009E4203D1002F05D0174A06E0002F03D0164A02E0164A00E0164A012192
:401C80002800FFF751F800280FD10B4B1A68B423D3585B191B68002BF7DBEB681B0E1B06A0221206934200D100242000F8BDC0464C0A0000F42D00100808000818F0000024
:401CC000FFFFFFFE04004200682B0010010100300300000C010000300100000CF8B50500012804D9822109012948FFF75FFDFFF733FF002849D0FFF718FE0700002D11D1CE
:401D00000021244B244AD150E823DB00B0225205D65CF6B20120FFF74BFF041E19D1FFF70BFE16E0B02252051C4BD0581A4B194958501B49565CF6B21A481A581F218A4373
:401D400014390A431A500320FFF724FDFFF7C2FE0024002C15D11049124A8B581F20834306401E438E50002D02D1FFF779FE08E00720FFF70FFDFFF72BFE0020FFF718FF4D
:401D800004003800FFF7D5FD00E0074C2000F8BDF42D0010307F00000000264010180000410700001CFF000003004200042805D10B4A116804230B4313600FE0094B1A6884
:401DC0001168A023D358CB180006C022920410401860034A136804218B4313607047C04610E000E008080008F0B54F464646C0B483B006000D0000921F00012B03D95B21CB
:401E00002B48FFF7D3FC330B03D05C212848FFF7CDFC284B1A686E23D35A9B08013B264A13432A009A4301D16B0003D45D212048FFF7BCFC32006A40F0231B011A40141E0F
:401E40002FD1FFF772FD01901A4B18686C23C15A83689C4661446E23C35A9A08013A2A40920090466A22825A15402D0A5D432A00424455182A68920A9202FF231E40009B80
:401E8000002B01D00134FF3426437F0280239B001F403E4316432E600198FFF74AFD002000E0064803B00CBC90469946F0BDC046342E001008080008000F00400100CE0020
:401EC0000749C02252008B589B009B088020C00503438B508B588020000603438B50704700002640014B18607047C04608080008002243088B4274D303098B425FD3030ABE
:401F00008B4244D3030B8B4228D3030C8B420DD3FF22090212BA030C8B4202D31212090265D0030B8B4219D300E0090AC30B8B4201D3CB03C01A5241830B8B4201D38B03FD
:401F4000C01A5241430B8B4201D34B03C01A5241030B8B4201D30B03C01A5241C30A8B4201D3CB02C01A5241830A8B4201D38B02C01A5241430A8B4201D34B02C01A5241A8
:401F8000030A8B4201D30B02C01A5241CDD2C3098B4201D3CB01C01A524183098B4201D38B01C01A524143098B4201D34B01C01A524103098B4201D30B01C01A5241C308F7
:401FC0008B4201D3CB00C01A524183088B4201D38B00C01A524143088B4201D34B00C01A5241411A00D20146524110467047FFE701B5002000F006F802BDC0460029F7D0CD
:4020000076E770477047C046002310B59A4203D0CC5CC4540133F9E710BD03008218934202D019700133FAE77047030030B5002A0DD00C7801335D1E013A2C700131002C27
:40204000F5D19A189A4202D01C700133FAE730BDF8B5C046F8BC08BC9E467047F8B5C046F8BC08BC9E467047030000000100000001000000000000000503600004000000AF
:402080000100000000000000010000000604600008000000C0070008B101001073797374656D5F70736F63365F636D30706C75732E630000F4010000140004010A00090552
:4020C0000800000063010000002034407400802034407400002234407400802234407400002434407400802434407400002634407400802634407400002834407400802864
:4021000034407400002A34407400802A3440740000213440382200109000000000233440C82200109000000000253440582300109000000000273440E82300109000000069
:40214000002934407824001090000000002B3440082500109000000000603440982500107C00000080603440142600107C00000000613440902600107C0000008061344077
:402180000C2700107C00000000623440882700107C00000080623440042800107C00000000633440802800107C00000080633440FC2800107C0000000064344078290010A6
:4021C0007C00000080643440F42900107C00000000653440702A00107C00000080653440EC2A00107C0000002880000001713440030000000000000000000000680000006F
:4022000000000000000000000000000012120000000000000C0000000000000000000000006600BA0000000000000000000000000000080300001D1D000000000000000009
:4022400000000000FFFFFFFFFFFFFFFFFFFFFFFFFFFFFFFFFFFFFFFFFF000000FFFFFFFFFFFFFFFFFFFFFFFFFFFFFFFFFFFFFFFFFF00000000000000000000000000000088
:4022800000000000000000000F000000FFFFFFFFFFFFFFFFFFFFFFFF1111111111111111111111111111111111111111111111111111111111111111111111111111111173
:4022C0001111111111111111000000000000000000000000FFFFFFFFFFFFFFFFFFFFFFFFFFFFFFFFFFFFFFFFFF000000FFFFFFFFFFFFFFFFFFFFFFFFFFFFFFFFFFFFFFFF7F
:40230000FF000000000000000000000000000000000000000000000000000000FFFFFFFFFFFFFFFFFFFFFFFF11111111111111111111111111111111111111111111111112
:40234000111111111111111111111111111111111111111111111111000000000000000000000000FFFFFFFFFFFFFFFFFFFFFFFFFFFFFFFFFFFFFFFFFF000000FFFFFFFFDE
:40238000FFFFFFFFFFFFFFFFFFFFFFFFFFFFFFFFFF000000000000000000000000000000000000000000000000000000FFFFFFFFFFFFFFFFFFFFFFFF1111111111111111B2
:4023C00011111111111111111111111111111111111111111111111111111111111111111111111111111111000000000000000000000000FFFFFFFFFFFFFFFFFFFFFFFF41
:40240000FFFFFFFFFFFFFFFFFF000000FFFFFFFFFFFFFFFFFFFFFFFFFFFFFFFFFFFFFFFFFF000000000000000000000000000000000000000000000000000000FFFFFFFFBE
:40244000FFFFFFFFFFFFFFFF111111111111111111111111111111111111111111111111111111111111111111111111111111111111111111111111000000000000000034
:4024800000000000FFFFFFFFFFFFFFFFFFFFFFFFFFFFFFFFFFFFFFFFFF000000FFFFFFFFFFFFFFFFFFFFFFFFFFFFFFFFFFFFFFFFFF00000000000000000000000000000046
:4024C000000000000000000000000000FFFFFFFFFFFFFFFFFFFFFFFF1111111111111111111111111111111111111111111111111111111111111111111111111111111140
:402500001111111111111111000000000000000000000000FFFFFFFFFFFFFFFFFFFFFFFFFFFFFFFFFFFFFFFFFF000000FFFFFFFFFFFFFFFFFFFFFFFFFFFFFFFFFFFFFFFF3C
:40254000FF000000000000000000000000000000000000000000000000000000FFFFFFFFFFFFFFFFFFFFFFFF111111111111111111111111111111111111111111111111D0
:4025800011111111111111111111111111111111111111111111111100000000000000001F1F1F1F1F1F1F1F1F1F1F1F1F1F1F1F1F1F1F1F1F1F1F1F1F1F1F1F1F1F1F1FA3
:4025C000000000000000000000000000000000000000000005000000FFFFFFFFFFFFFFFFFFFFFFFF1111111111111111111111111111111111111111111111111111111106
:40260000111111111111114111111111111111111111111100000000000000001F1F1F1F1F1F1F1F1F1F1F1F1F1F1F1F1F1F1F1F1F1F1F1F1F1F1F1F1F1F1F1F0000000036
:402640000000000000000000000000000000000000000000FFFFFFFFFFFFFFFFFFFFFFFF1111111111116111111111111111111111111111111111111111111111111111F6
:402680001111111111111111111111111111111100000000000000001F1F1F1F1F1F1F1F1F1F1F1F1F1F1F1F1F1F1F1F1F1F1F1F1F1F1F1F1F1F1F1F00000000000000002A
:4026C00000000000000000000000000000000000FFFFFFFFFFFFFFFFFFFFFFFF11111111111101111111111111111111111111111111111111111111111111111111111192
:4027000011111111111111111111111100000000000000001F1F1F1F1F1F1F1F1F1F1F1F1F1F1F1F1F1F1F1F1F1F1F1F091F1F1F1F1F1F1F00000000000000000000000003
:40274000000000000000000000000000FFFFFFFFFFFFFFFFFFFFFFFF11111111113101111111111111111111111111111111111111111111111111111111111111111111AD
:40278000111111111111111100000000000000001F1F1F1F1F1F1F1F1F1F1F1F1F1F1F1F1F1F101F1F1F1F1F1F1F1F1F1F1F1F1F00000000000000000000000000000000C0
:4027C0000000000000000000FFFFFFFFFFFFFFFFFFFFFFFF111111111111011111111111111111111111111111111111111111111111111111111111111111111111111109
:402800001111111100000000000000001F1F1F1F1F1F1F1F1F1F1F1F1F1F1F1F1F1F1F1F1F1F1F1F1F1F1F1F1F1F1F1F000000000000000000000000000000000000000074
:4028400000000000FFFFFFFFFFFFFFFFFFFFFFFF11111111111111111111111111111111111111111111111111111111111111111111111111111111111111111111111134
:4028800000000000000000001F1F1F1F1F1F1F1F1F1F1F1F1F1F1F1F1F1F1F1F1F1F1F1F151F1F1F1F1F1F1F00000000000000000000000000000000000000000F00000033
:4028C000FFFFFFFFFFFFFFFFFFFFFFFF11111111111111111111111111111111111111111111111111111111D11111111111111111111111111111111111111100000000F4
:40290000000000001F1F1F1F1F1F1F1F1F1F1F1F1F1F1F1F1F1F1F1F1F1F1F1F1F1F1F1F1F1F1F1F000000000000000000000000000000000000000000000000FFFFFFFFBB
:40294000FFFFFFFFFFFFFFFF11111111111111111111111111111111111111111111111111111111111111111111111111111111111111111111111100000000000000002F
:402980001F1F1F1F1F1F1F1F1F1F1F1F1F1F1F1F1F1F1F1F1F1F1F1F1F1F1F1F1F1F1F1F000000000000000000000000000000000000000000000000FFFFFFFFFFFFFFFF3F
:4029C000FFFFFFFF11111111111111111111111111111111111111111111111111111111111111111111111111111111111111111111111100000000000000001F1F1F1F2F
:402A00001F1F1F1F1F1F1F1F1F1F1F1F1F1F1F1F1F1F1F1F1F1F1F1F1F1F1F1F000000000000000000000000000000000000000000000000FFFFFFFFFFFFFFFFFFFFFFFF3E
:402A400011111111111111111111111111111111111111111111111111111111111111111111111111111111111111111111111100000000000000001F1F1F1F1F1F1F1F2E
:402A80001F1F1F1F1F1F1F1F1F1F1F1F1F1F1F1F1F1F1F1F1F1F1F1F000000000000000000000000000000000000000000000000FFFFFFFFFFFFFFFFFFFFFFFF11111111F6
:402AC000111111111111111111111111111111111111111111111111111111111111111111111111111111111111111100000000000000001F1F1F1F1F1F1F1F1F1F1F1F76
:402B00001F1F1F1F1F1F1F1F1F1F1F1F1F1F1F1F1F1F1F1F000000000000000000000000000000000000000000000000FFFFFFFFFFFFFFFFFFFFFFFF1111111111111111AD
:402B40001111111111111111111111111111111111111111111111111111111111111111111111111111111147656E6572617465645F536F757263655C50536F43365C709B
:402B8000646C5C647269766572732F7065726970686572616C2F6970632F63795F6970635F6472762E68000047656E6572617465645F536F757263655C50536F43365C702B
:402BC000646C5C647269766572735C7065726970686572616C5C6770696F5C63795F6770696F2E630000000047656E6572617465645F536F757263655C50536F43365C702E
:402C0000646C5C647269766572735C7065726970686572616C5C6770696F5C63795F6770696F2E680000000047656E6572617465645F536F757263655C50536F43365C70E8
:402C4000646C5C647269766572735C7065726970686572616C5C6970635C63795F6970635F6472762E68000047656E6572617465645F536F757263655C50536F43365C70E3
:402C8000646C5C647269766572735C7065726970686572616C5C6970635C63795F6970635F6472762E63000047656E6572617465645F536F757263655C50536F43365C70A8
:402CC000646C5C647269766572735C7065726970686572616C5C6970635C63795F6970635F706970652E630047656E6572617465645F536F757263655C50536F43365C7006
:402D0000646C5C647269766572735C7065726970686572616C5C70726F745C63795F70726F742E630000000047656E6572617465645F536F757263655C50536F43365C70C0
:402D4000646C5C647269766572735C7065726970686572616C5C737973636C6B5C63795F737973636C6B2E630000000047656E6572617465645F536F757263655C50536F1D
:402D800043365C70646C5C647269766572735C7065726970686572616C5C737973636C6B5C63795F737973636C6B2E680000000047656E6572617465645F536F7572636501
:402DC0005C50536F43365C70646C5C647269766572735C7065726970686572616C5C737973696E745C63795F737973696E742E630000000047656E6572617465645F536FE5
:402E0000757263655C50536F43365C70646C5C647269766572735C7065726970686572616C5C737973706D5C63795F737973706D2E63000047656E6572617465645F536FD1
:402E4000757263655C50536F43365C70646C5C647269766572735C7065726970686572616C5C747269676D75785C63795F747269676D75782E6300000000204000002440D5
:402E8000000000400000000000002340000030400000314000009F40000022400000104002020202020202020210101D800017007500FF0306020636041020000000000028
:402EC0007FC0000000040000000000000019324B647D00804000080B100000000000FF012002001F00800004FF081018001000140018001C4044484C500000000810000069
:402F00000800000004000000041000000012000004210000002100000016000040114002C41300138013A013200000001C0000000000214000002540000001400000344089
:402F400000002440000031400000324000001F410000234000001140010101010101010101101010800019005500F0000501053B04101C01010000000FC000000004000094
:402F800001010101011D3A57789600082000101208000000001F00000010000F002000023F06080E00080009000A000B24282C303400000010000000900000008800000019
:402FC000080000008000000004F0000000F00000400200002005A000D00100018001A0012000000010000000000000000000001000000008C00000000C300010C00000084E
:403000003805000034060008D801000000127A0000093D0000093D0000093D0004000000A00F00000000D007E9000010C10000100000000010B50004400B27D0144B1A689A
:40304000146AB023D15ACA00531AE3181B68002BF4DA3E220F4B1A600F4A104B1A60104B0621A322D20099500E4A98509B58084B1A68106AB023D15ACA00531AC31800220E
:403080005A60084B064AD358002BFADA10BDC04608080008040126401E1F000008012640000026401C05000010B54378FF2B20D100F028FA04000F4B1A683123D35C042BC1
:4030C00004D8C421FF310C4800F004FA094B1A68116AB023D35A9B00CB18DB685A68116801230B4313601368DB07FCD4200000F0E1F910BD08080008682B0010F0B585B0F2
:4031000001900291544B1A683123D35C002B04D1C421FF31514800F0DDF94F4B1B681E6AB4229A58971950229B5C002B77D000F0F9F9050003283CD1474B1A683123D35CA5
:40314000062B04D8C421FF31444800F0C3F9424B1968B023CB5A5A00D21853000A6A94466344B4228A58D3181B68002B23DB002000F0B8F93A4B98421FD03A4B1A690023DA
:403180000021012000F0B6F9002803D0364C17E0013400E00024002000F0A4F9304B984202D0324B9C42F3D9304B9C4207D92E4C06E0002404E02C4C02E02B4C00E0002410
:4031C000002C46D100F09EF90390294B294AD358002B13DA234A0121300000F09BF900280ED10298FFF726FF019B002B0AD03B68002BFCDB00F09EF9040004E01A4C02E04C
:40320000194C00E01C4C032D05D10121002000F059F90028F9D1039800F04CF919E000F071F905000F4A0121300000F073F9002809D1019B002B08D03B68002BFCDB00F000
:4032400079F9040002E0084C00E00B4C280000F031F9200005B0F0BD08080008682B001001018800E007000805005200EF4902001C0500000000264001005000F0B54F46D0
:403280004646C0B4824B1A685468B0235B055B78002B04D0B0235B055B78DBB200E02123212B67D1B023D15ACB005B1A116A8C46634419680029F5DADD6802212943D9600B
:4032C000B023D15ACB005B1A116A8C466344D968C9073ED5D9680904090C8C4684271168D559A84641440968090A0904FF26360431400D0088261168894691598846C1445D
:4033000049460968090A0906294365462943D9601168D359C9180A685E4B98461A4090252D012A430A605A4B99461A6813689C46925962441368414619400B002B431360E1
:403340004B461A681568D15969180B689359EB181B684F4B1A68B021555AEB005B1B156AAC46634400255D60156A515ACA00531AEB185B68484A116904230B4313610128F1
:4033800001D030BF00E020BF414B1A68B023D15ACB005B1A116A8C46634419680029F3DAB02149054978002904D0B02149054978C9B200E02121212932D1D968C90722D528
:4033C00010688421525880180468324A1440DB681B0C1B02FF2109020B40234303602C4B19688823C8580B689C46604403681A400D6AB023CC5AE1000B1BEB18DB681B0E05
:403400001B021A430260224B1A68106AB023D15ACA00531AC318DA6802218A43DA6028E086235B00E358002B23D11C4807681C4BA321C9005E581B4A904615681A4A02606A
:40344000062058503E21424611600631174A9950164B134AD358002BFADA154A86235B00E2500E4B1F60A323DB000D4AD6500D4B1D60074B1A68106AB023D15ACA00531ADA
:40348000C31800225A600CBC90469946F0BDC04608080008FF00FFFF00ED00E00801264000002640040126401E1F00001C050000AAAAAAAA01B40248844601BC604700BF11
:4034C0003319001001B40248844601BC604700BFB50E001001B40248844601BC604700BFAD17001001B40248844601BC604700BF410F001001B40248844601BC604700BFB9
:403500002511001001B40248844601BC604700BF2B19001001B40248844601BC604700BF290D001001B40248844601BC604700BF2904001001B40248844601BC604700BFBE
:403540005D0B0010000000000000000000000000000000000000000000000000000000000000000000000000000000000000000000000000000000000000000000000000D3
:40358000000000000000000000000000000000000000000000000000000000000000000000000000000000000000000000000000000000000000000000000000000000000B
:4035C00000000000000000000000000000000000000000000000000000000000000000000000000000000000000000000000000000000000000000000000000000000000CB
:020000041008E2
:4000000000780408EB0208100D00000051030810510308105103081051030810000000000000000000000000000000004D0308104D030810000000004D0308104D030810DA
:400040004D0308104D0308104D0308104D0308104D0308104D0308104D0308104D0308104D0308104D0308104D0308104D0308104D0308104D0308104D0308104D03081000
:400080004D0308104D0308104D0308104D0308104D0308104D0308104D0308104D0308104D0308104D0308104D0308104D0308104D0308104D0308104D0308104D030810C0
:4000C0004D0308104D0308104D0308104D0308104D0308104D0308104D0308104D0308104D0308104D0308104D0308104D0308104D0308104D0308104D0308104D03081080
:400100004D0308104D0308104D0308104D0308104D0308104D0308104D0308104D0308104D0308104D0308104D0308104D0308104D0308104D0308104D0308104D0308103F
:400140004D0308104D0308104D0308104D0308104D0308104D0308104D0308104D0308104D0308104D0308104D0308104D0308104D0308104D0308104D0308104D030810FF
:400180004D0308104D0308104D0308104D0308104D0308104D0308104D0308104D0308104D0308104D0308104D0308104D0308104D0308104D0308104D0308104D030810BF
:4001C0004D0308104D0308104D0308104D0308104D0308104D0308104D0308104D0308104D0308104D0308104D0308104D0308104D0308104D0308104D0308104D0308107F
:400200004D0308104D0308104D0308104D0308104D0308104D0308104D0308104D0308104D0308104D0308104D0308104D0308104D0308104D0308104D0308104D0308103E
:400240004D0308104D0308104D0308104D0308104D0308104D0308104D0308104D0308104D0308104D0308104D0308104D0308104D0308104D0308104D0308104D030810FE
:400280004D0308104D0308104D03081010B5054C237833B9044B13B10448AFF300800123237010BDA44A0208000000005C6E0810084B10B51BB108490848AFF30080084893
:4002C000036803B910BD074B002BFBD0BDE81040184700BF00000000A84A02085C6E081070440208000000007047FFF7FDFF72B6104C114DAC4209DA21686268A368043B1A
:40030000A2BFC858D050FAE70C34F3E70B490C4A00209142BCBF41F8040BFAE709480A490860BFF34F8F00F01BFD00F0F5FC00F071FBFEE7606E0810786E0810A44A02083E
:400340002C5002080040020808ED00E0FEE7FEE700B504207146084202D0EFF3098001E0EFF30880043001F081FFFEE700B583B001220DF10701194801F012FD9DF80730E4
:40038000303B062B20D8DFE803F004080C1014181C000022124B1A7016E00122104B1A7012E002220E4B1A700EE003220C4B1A700AE004220A4B1A7006E00522084B1A70B2
:4003C00002E00622064B1A70044B0422C3F8C02FD3F8C03F03B05DF804FB00BF00006640E84E0208F0B583B0002415E0A3000C4A1A440C490B441D68106802F0B5FE0646A9
:400400000F46284602F0B0FECDE9000132463B46054804F0DBF80134072CE7DD03B0F0BD2C4F0208284E0208D464081010B500240BE0074B03EB8403186802F095FE0246CC
:400440000B46044804F0C2F80134072CF1DD10BD684D0208DC6408102DE9F04387B0002421E0134B03EB84031D6AD3F84080D3F86090186802F078FE06460F46484602F0C9
:4004800073FECDE90401404602F06EFECDE90201284602F069FECDE9000132463B46054804F094F80134072CDBDD07B0BDE8F0838C420208E06408102DE9F04387B0002468
:4004C00027E0A300154A1A44154919440D6815491944D1F8008014490B44D3F80090106802F042FE06460F46484602F03DFECDE90401404602F038FECDE90201284602F0D2
:4005000033FECDE9000132463B46084804F05EF80134072CD5DD07B0BDE8F083A84E02086C4F02084C4F0208484D0208E06408102DE9F04387B0002427E0A300154A1A44E7
:40054000154919440D6815491944D1F8008014490B44D3F80090106802F006FE06460F46484602F001FECDE90401404602F0FCFDCDE90201284602F0F7FDCDE9000132464A
:400580003B46084804F022F80134072CD5DD07B0BDE8F083A84D0208C84E0208484E0208EC4E0208E0640810F0B583B0002415E0A3000C4A1A440C490B441D68106802F039
:4005C000D3FD06460F46284602F0CEFDCDE9000132463B46054803F0F9FF0134072CE7DD03B0F0BD684E0208E84D0208D4640810F0B583B0002415E0A3000C4A1A440C49FF
:400600000B441D68106802F0AFFD06460F46284602F0AAFDCDE9000132463B46054803F0D5FF0134072CE7DD03B0F0BDC84D0208884D0208D464081070B52DED028B00249A
:400640004CE02546944B33F92460944B1A68944B03EB02135B6823B94FF49661914801F0F5FD32460021904801F048FB8F4B03EB850318608E4B33F92560884B1A68884B5D
:4006800003EB02135B68012B04D84FF49661854801F0DCFD32460121834801F02FFB854B03EB85031860844B33F925607B4B1A687B4B03EB02135B68022B04D84FF49661C6
:4006C000784801F0C3FD32460221774801F016FB7A4B03EB850528600134E4B2072CB0D9002218E0930071491944D1ED007A7449194491ED007A27EE877A7248184480ED3A
:40070000007A91ED087A67EE877A6F490B44C3ED007A0132D2B2072AE4D96C4C08236C4A6849204602F088F808236A4A664904F10C0002F081F8002424E0A500644B2B440C
:4007400093ED008A28EE088A624B2B44D3ED007A67EEA77A38EE278A18EE100A02F004FD01F04AFF02460B4602F0A0FB48A3D3E9002302F04DFD584B1D4402F0F9FF286035
:400780000134E4B2072CD8D90823544A5249544802F052F8002218E0930044491944D1ED007A4749194491ED107A27EE877A4D48184480ED007A91ED187A67EE877A4A49A3
:4007C0000B44C3ED007A0132D2B2072AE4D93F4C0823464A434904F1240002F02DF80823434A414904F1300002F026F8002424E0A5003E4B2B4493ED008A28EE088A3C4B64
:400800002B44D3ED007A67EEA77A38EE278A18EE100A02F0A9FC01F0EFFE02460B4602F045FB1BA3D3E9002302F0F2FC314B1D4402F09EFF28600134E4B2072CD8D9082317
:400840002D4A2C492D4801F0F7FF2D4B1B78DBB2062B19D8DFE803F004070A0D10131600FFF7C0FD10E0FFF7E1FD0DE0FFF7F4FD0AE0FFF721FE07E0FFF75AFE04E0FFF708
:4008800093FE01E0FFF7B4FEBDEC028B70BD00BF00000060FB21F93F084E0208344D0208A06B0810F064081000001D41684D02080C4F02082C4F0208884E0208284E020867
:4008C0008C420208A84E02086C4F02088C640810A84D0208C84E0208684E0208C84D0208A46408104C4F0208484D0208484E0208EC4E0208E84D0208884D0208C8640810AB
:40090000E84E020870B584B0304C3149204600F09FFA304E3049304600F09AFA2F4D3049284600F095FA009400218DF80410032302938DF80C106A462A4800F0C1FB2A4B79
:4009400063602A4BA3602A4B73602A4BB3602A4B6B602A4BAB602A4C2A49204601F018FCB4F90030002B08DB5A0903F01F00012181406032244840F82210002B08DB59093D
:4009800003F01F03012202FA03F31F4A42F821301E4B1B6893F8333023B940F2FA511C4801F054FC194B1B68B3F85A3003F1804303F520131A6842F000421A60094A136805
:4009C00043F00043136004B070BD00BF844C0208046608109C4C020834660810B44C0208646608100000284080011D41084E020884011D410C4F020888011D41884E0208CC
:400A0000906508103906081000E100E0245002081865081008B50024464B1C70464B1C605C609C60DC601C615C619C61DC611C625C629C62DC621C635C639C63DC632025D2
:400A40002A4621463D4803F047F92A4621463C4803F042F92A4621463A4803F03DF92A462146394803F038F92A462146374803F033F92A462146364803F02EF92A462146A5
:400A8000344803F029F92A462146334803F024F92A462146314803F01FF92A462146304803F01AF92A4621462E4803F015F92A4621462D4803F010F92A4621462B4803F0C0
:400AC0000BF9FFF71FFF2A4C2A49204601F060FBB4F90030002B08DB5A0903F01F00012181406032244840F82210002B08DB590903F01F03012202FA03F31F4A42F821300A
:400B000062B600F073F900F059F900F089F901F02DFD01F0FFFC01F057FD4FF47A7001F071FB164C082565604FF47A7001F06AFBA560F2E7E84E0208C04A0208684D0208EF
:400B40002C4F0208284E0208A84E0208A84D0208C84E0208684E0208C84D02084C4F0208484E0208EC4E0208E84D0208884D0208986508106D03081000E100E000003240FB
:400B800008B5012000F0C2FE08BD00BF704700BF5A4AD2F8803303F00F0303F1D00152F8212012F0070202D0042A02D00FE0544911E003F1C002514951F8222002F01F02EF
:400BC000112A06D0132A04D04FF4FA4103E04D4901E04FF400418BBB484BD3F8902502F00100D3F88825C2F30172D3F8883513F0405F07D0414BD3F88835C3F30173012B20
:400C000002D102E0012300E0002303B108B9032A46D13A48D0F88025C2F31103D0F88425C2F30C02D0F88005C0F300600130B1FBF2F202FB03F2B2FBF0F131E0012B2FD155
:400C40002E4BD3F8402602F00100D3F80026C2F30172D3F8003613F0405F07D0274BD3F80036C3F30173012B02D102E0012300E0002303B108B9032A12D12048D0F80026C4
:400C800002F07F02D0F80036C3F30423D0F80006C0F3044002FB01F2B2FBF3F2B2FBF0F1164BD3F88033C3F3011321FA03F216490A601648D0F89030C3F30723013300692C
:400CC000000E0130B2FBF0F04860B2FBF3F38B60CB6003F5742202F23F220D48A0FB0202C2F387420A7403F2E7330A4AA2FB03239B094B61DB038B61704700BF00002640E8
:400D000000127A0000366E01AC4302080000214083DE1B43D34D621008B50D4801F0BEFBFFF734FFFFF734FF00221146042000F0B5FB084800F048FC074B1B6893F8513027
:400D400013B1064800F0B0FC00F0F2FA08BD00BFAC6A0810004B0208245002085465081008B501F0DEFA074AD2F8883043F47003C2F88830BFF34F8FBFF36F8F01F0D5FA1E
:400D800008BD00BF00ED00E010B504462146034801F014F80028F9D010BD00BF00006640054BD3F80833C3F30803002BF8D0024BD3F84003704700BF0000664008B5084B70
:400DC0001B783BB9074A0121074801F0B1FA0122034B1A70044B02229A609A6108BD00BF804C0208A06508100000384008B5084B1B783BB9074A0849084800F0F3FF01222E
:400E0000034B1A70054A136843F00043136008BDCD4C02088C4F0208946608100000664008B5084B1B783BB9074A0221074801F07FFA0122034B1A70044B04229A609A6179
:400E400008BD00BFCE4C0208D466081000003840002800F0248138B50546002900F021810C460B78032B03D95721914801F0EEF96378032B03D958218D4801F0E7F9A37829
:400E8000032B03D959218A4801F0E0F92379032B03D95A21864801F0D9F9A379012B03D95B21834801F0D2F9E379012B03D95C217F4801F0CBF9E378012B03D95D217C4837
:400EC00001F0C4F96379022B03D95E21784801F0BDF9237A032B03D95F21754801F0B6F9237803F003016278930003F00C030B43A278120102F03002134322799201D2B24D
:400F00001343A279920602F080621343E279D20602F000621343E278120602F0807213436279120702F040521343227A43EA82732B60E3686B602369AB60237A032B00F274
:400F4000B280DFE803F002063388E36AEB60002038BD636903F50063B3F5805F03D37821534801F073F9A36903F50063B3F5805F03D379214E4801F069F9E369013BFF2B07
:400F800003D97A214A4801F061F96369C3F30B02A369484901EA03331A43E369013B42EA0363EB60E36A2B61002038BD636903F50063B3F5805F03D387213D4801F046F9FF
:400FC000A36903F50063B3F5805F03D38821384801F03CF9E369013BFF2B03D98921344801F034F9236A03F50063B3F5805F03D38A212F4801F02AF9636A03F50063B3F5C1
:40100000805F03D38B212A4801F020F9A36A013BFF2B03D98C21264801F018F96269C2F30B01A269234B03EA02320A43E169013942EA0162EA60226AC2F30B02616A03EA91
:4010400001331343A26A013A43EA02632B61E36A6B61002038BD184B1B6893F82A30012B23D9636903F50063B3F5805F03D3A1210F4801F0EBF8E369013BFF2B03D9A2219E
:401080000B4801F0E3F86369C3F30B03E269013A43EA0263EB60E36A2B61002038BD07487047064838BD054838BD044838BD00BF3867081000F0FF002450020801004E0032
:4010C000002860D0F8B50346002A5ED0106800285DD03148006890F83300884259D91E4614460D469368032B03D9EF212B4801F0ADF82768284B1B6893F833309D4204D38D
:4011000040F2E151264801F0A1F8234B1A68B2F85A309919B2F85C3005FB0313DF60B2F85A10B2F85C30314405FB03118B681B0C1B048B60B2F85A301E44B2F85C1005FB4F
:4011400001F123792BB192F85F70012303FA07F700E00027A06892F85E50A8400322AA4000EA02033B43227B12B14FF0004200E000221343627B0AB1042200E00022134393
:4011800073500020F8BD074870470648F8BD0548F8BD0448F8BD00BF24500208386708107467081001004E001F4B98422DD00CD840282ED003D8E8B1102828D02FE080286F
:4011C00029D0B0F5807F28D029E0184B984228D006D8B0F1204F0DD0154B984212D01EE0144B98420AD00133984209D0023B984215D101E0002070470F4870470F4870476C
:401200000F4870474FF4A0007047074870470D4870470D4870470D487047034870470C4870474FF4A400704706005200010000F0090000A0040000F00100520002005200A4
:4012400003005200010050000200500005005200FF00520038B5124B1B6893F83130012B04D840F2C3110F4800F0F0FF0C4B1D682A6AB5F8B03013442C46D5F8B420D3583F
:40128000002B0BDB084B1868FFF78EFF6B6801229A6063689B68002BFBD138BD034838BD24500208B0670810D04C0208020050001A4B186128B102230370FF234370002371
:4012C0004380174B1B6893F850202AB300B583B0B3F93830ADF80030002301931149684600F056FFBDF90030002B08DB590903F01F03012202FA03F30B4A42F82130084BE6
:401300001B6893F8513023B102220849012000F077FA03B05DF804FB704700BFD04C020824500208E144020800E100E09945020808B50248FFF7BCFF08BD00BFE44C0208E4
:4013400038B50B4B1B68D3F8B4301B58002B0DDA0D4604460B0C1B0423B140F2D521054800F074FFA9B26160002038BD024838BD24500208F067081001008A0038B50368B4
:40138000002B01DA002300E0094B73B90D460446C2600B0C1B0423B140F2BB21054800F055FFA9B2A160002038BD014838BD00BF01008A00F067081038B504460D4619B978
:4013C0009921084800F042FF074B1B68D3F8B4301B59002B03DAE3682B60002038BD034838BD00BF306808102450020801008A00254B1B6893F8313083423AD900293AD025
:401400000B6813F01F0F38D170B50D4604461E4B1B6893F83130984204D340F2C3111B4800F014FF184B1B68186AB3F8B03004FB0304174E34602A68D2080021686802F007
:401440004BFC00212046FFF77BFF346825B940F293310E4800F0FAFE2A4600212046FFF78DFF60B900210A4B1868FFF769FF40B970BD084870470748704706487047064814
:4014800070BD054870BD00BF24500208F0670810E84C020803018A0001018A0010B504461346B2B9A9B9124B1B6893F83130984204D340F2C3110F4800F0C8FE0C4B1B68E2
:4014C0001A6AB3F8B03004FB03240B4B1C60002010BD43B149B1084A51609360111D2046FFF786FF10BD054810BD044810BD00BF24500208F0670810E84C020803018A008D
:401500002DE9F0411B4B1B68DC68236883422CD90D464609A0EB4610012303FA00F819B900F0FFFE074600E00027124B18680368002B01DA002300E00F4B83B9626852F838
:40154000263018EA030F05D023EA080342F82630002400E0094C0021FFF7F2FE00E0084C25B9384600F0E1FE00E0064C2046BDE8F08100BFE84C020801008A000201880004
:401580000301880004018A000B4B1B68DB681A6882420CD94109A0EB4110012202FA00F05B6853F82130184203D004487047044870470448704700BFE84C02080101880078
:4015C00004018A0000018800024B1B680BB9014B18607047F44C02082DE9F8430446884691461D46089F2C4B1B681BB9B5212B4800F02CFE284B1B682C2000FB04F01C189A
:40160000EEB21E50C5F3072363602D0CA560244B1B6893F831309E4204D340F2C311214800F014FE1E4B1B68196AB3F8B02006FB02162661666893F832309E4204D340F285
:40164000DF11184800F002FE154B1B681D6A803605EB46156561A668330C1B0423B14FF4FF71104800F0F2FD330C1B0423B140F2FF110C4800F0EAFDB3B243EA0646AE6044
:40168000C4F81C90C4F820800023A36117B1B7F90030A381BDE8F883F44C02087068081024500208F0670810F0B58FB0044618B95221274800F0CAFDA369072B03D9562103
:4016C000234800F0C3FDE36A1BB95821204800F0BDFD236B1BB959211D4800F0B7FD07AD04F114060FCE0FC537682F6002AD26460FCE0FC533682B60164B1B68B3F93620C4
:40170000079B1344ADF83030089B0D93A26AE16A0CAD00953B460A98FFF75EFF00210091069B0A460598FFF757FF216B284600F02FFDBDF93030002B08DB590903F01F0310
:40174000012202FA03F3044A42F821300FB0F0BD706808102450020800E100E0F8B506460F461D4614461AB9FD211F4800F06EFD1E4B1B681BB9FE211B4800F067FD1B4B26
:401780001B682C2101FB063001FB07314B68012202FA03F31B04466802FA06F60269EAB18F69EFB91268002A01DA002200E0104AC2B92288134323600369DC6001238B612F
:4017C0004D620469330C1B0423B140F2BB21094800F03CFDB2B2A2600020F8BD0648F8BD0648F8BD0548F8BD70680810F44C020801008A00F067081004028A0007028A0079
:40180000F8B505460F4616460E4B1B6823B94FF4AF710D4800F01AFD0A4B1B682C2404FB0534236A23B94FF4B171074800F00EFDE369B34204D9236A43F826700020F8BDBF
:401840000248F8BDF44C0208706808100A028A0070B582B000230193044620B940F2D111284800F0F3FC236923B94FF4E971254800F0ECFC636923B940F2D311214800F0A4
:40188000E5FC236A23B94FF4EA711E4800F0DEFC6369DD682A0C20D012041A601B682069194B1B68D3F8B430C358002B15DA01A9FFF782FD60B9019803681E0CDBB2E26934
:4018C000934206D2226A52F8233013B1984700E0002631462069FFF733FDADB275B16369ADB21D601B68636A1BB198470023636202E0A36A03B198470023A36163691B683B
:4019000002B070BD706808102450020810B50446074B1B6823B940F2B111064800F096FC034B1B682C2000FB0430FFF791FF10BDF44C0208706808102DE9F8430E4607460B
:4019400018B93A21754800F081FC1EB93B21734800F07CFC002F00F0DA80002E00F0DA8032686F4B13401BB14A216C4800F06EFC72686C4B13401BB14B21684800F066FCC0
:40198000B36813F0FC2F03D04C21644800F05EFCF36813F0FC2F03D04D21604800F056FC337D032B03D94E215C4800F04FFCB369B3F5803F03D34F21584800F047FCF36DF0
:4019C000072B03D95021554800F040FC336EB3F5803F03D35121514800F038FC736EB3F5803F03D352214D4800F030FC736843F000437B60B3683B61F3687B613369BB617E
:401A0000337D9B07FB61B3693B62336803F46068736803F00409002435E02546A31D06EB83035A68404B13401BB163213B4800F00DFCAB1D06EB8303596805F1200247F86C
:401A400022105B6813F0012F0BD1B8F5606F08D1B9F1000F05D04FF47842344B23F8152003E00022314B23F81520726F02F11C7303F58033520093FBF2F31BB22C4A42F892
:401A800025300134E4B20F2CC7D9F36DC7F81832F36DC7F81032336EC7F82832336EC7F82032736EC7F83832736EC7F8303296F87030DBB1B36EB3F1804F03D382211748C3
:401AC00000F0C4FBF36E23F44F0323F0FF031BB18321124800F0BAFB6FF04043C7F80433B36EC7F80033F36EC7F84433D7F8003F3F2B02D0D7F8003F13B90B23C7F8003F17
:401B0000336843F400133B600020BDE8F8830948BDE8F8830748BDE8F88300BFB06808100811DF0001FE302088CA887EC44F0208E44F02080100060038B50D46044618B9BB
:401B4000B521174800F082FB2CB30023236063604FF0031222616261A361E361236206E003F12002002144F822100133DBB20F2BF6D90023C4F81832C4F82832C4F838325A
:401B80005DB16FF04043C4F804330020C4F84003C4F8440338BD034838BD002038BD00BFB06808100100060008B50368002B0ADBD0F8A032002BFBDB036843F000430360C9
:401BC000022000F037FB08BD38B505460C46012904D940F27111064800F038FB012C04D16B6843F480336B6038BD01236B6238BDB068081038B505460C460F2904D94FF4AF
:401C00001571084800F022FB0F2C07D8203455F8243013F0012F03D0002038BD002038BD012038BDB068081038B505460C460F2904D940F22221104800F008FB0F2C14D8B6
:401C400021462846FFF7D6FF80F0010010F0FF0F05D06B6813F0080F09D1002038BD6B6813F0040F05D1002038BD002038BD012038BD012038BD00BFB0680810F8B5064697
:401C80000C4615460F2904D940F27B31194800F0DDFA0F2C2BD8736813F0800F22D104F1200356F8233013F4806F1BD07768C7F302170137012303FA07F7736813F4807F3A
:401CC00002D1102F00D9102721463046FFF7ACFF20B9ADB2B5FBF7F52DB203E03FB295FBF7F52DB2044B33F81430ED1A2DB22846F8BD00BFB0680810C44F020870B505461F
:401D00000C4616460F2904D94FF47771134800F09DFA0F2C1AD86B6813F0020F19D1324621462846FFF7AAFF07EE900AF8EEE77AF2EE046A67EEA66A094B53F8243007EE78
:401D4000103AB8EEC77AC6EE877A04E0DFED057A01E0DFED047A17EE900A70BDB0680810E44F02080000000010B4D0F8003303F00F03072B06D900230DE0D0F84043CC549A
:401D8000013300E000239342F7D306E0D0F8404321F8134001339342F8D35DF8044B704710B51446D0F80833C3F308039A4200D31C462246FFF7D8FF204610BD036813F4B3
:401DC000006F01D0802200E04022D0F80832C3F30803934203D0C0F84012012070470020704700BF002800F0A48170B50546002900F0A18116460C460B78022B03D93F215A
:401E0000A24800F023FA637B023BDBB2062B03D940219E4800F01AFAA37B3BB1022B05D0032B03D04121994800F010FA94F82130012B03D94221954800F008FA94F8283066
:401E4000012B03D94321914800F000FA2378012B06D86368083B082B94BF0023012307E0A37F2BB16368013B062B94BF002301231BB14521854800F0E9F9A368053B042BB1
:401E800003D94621814800F0E1F96369FF2B03D947217E4800F0DAF9A369FF2B03D948217A4800F0D3F9A37C6BB1237833B9A368092B05D1A37B2BB1012304E0012302E0B1
:401EC000012300E000231BB14A21704800F0BEF9636B23F4366323F00D031BB14C216B4800F0B4F9E36B23F4EE6323F003031BB14D21664800F0AAF92378022B01D1A37FF5
:401F000013B16268013A00E00022237F13B14FF4803100E00021A368082B02D84FF4006300E000230B4302F00F02134343F000732B60226B2B6813F4006F01D0802300E0F8
:401F400040239A4203D36221504800F07FF9A26B2B6813F4006F01D0802300E040239A4203D36321494800F071F9626A2B6813F4006F01D0802300E040239A4203D3642118
:401F8000424800F063F923781B0603F040732B64637F0BB1402200E00022A37C13B14FF4806300E000231343227C12B14FF4807200E000221343627C12B14FF4007200E0D2
:401FC00000221A43E36A013B1B0403F470231343627B013A02F007021343A27B120102F030021343AB64237B13B14FF4807200E00022E37B23B92378022B03D1012302E043
:40200000012300E0002313B14FF4007300E000231A43A368013B03F00F031343C5F80033227DA3691B0403F47F031343C5F81033E26AD5F8003303F00F0303339A4201D33D
:40204000102A03D97A21114800F000F9E37F23B12378012B03D0002302E0002300E0012313B14FF4807200E00022637B013B03F007031A43A37B1B0103F0300313436B647D
:40208000237B2BB14FF4807203E000BF706908100022A368013B03F00F0313432278012A02D14FF4803200E000221343C5F8003294F83030C5F8043394F8203013B14FF087
:4020C000007200E0002294F82130012B02D14FF0807300E00023134394F82820012A02D14FF4803200E00022134394F8242013432B6594F83830C5F80432636B23F492636F
:4021000023F002031B051B0DC5F8C83FE36B23F08C035B055B0DC5F8883F76B1002070603060B060F0603062F0623063044B736370BD04487047034870BD002070BD00BFE8
:40214000EFCDAB000160AA0038B50D4B9A680D4B9A420FD10D46044621B940F237110A4800F074F804F11003064A52F8230042F8235038BD1030054B53F8200038BD00BFDD
:4021800000ED00E000400208B06908100000081048B338B504460D464368072B03D93221134800F053F8B4F900306268002B08DB5201D2B203F1604303F5614383F800233B
:4021C00005E003F00F035201D2B20A49CA540A4B9A680A4B9A4208D12946B4F90000FFF7B3FF002038BD06487047002038BD00BFB069081014ED00E000ED00E00040020871
:402200000100560010B5044605E0084B186800F07FF8A4F50044B4F5004FF6D8044B186800FB04F000F074F810BD00BFC4430208C043020808B5034B1B7800FB03F000F036
:4022400067F808BDBC43020801BEFEE738B50D46044C18220146204602F0D8F9A5610020FFF7F2FF104A0208FEE700BF08B50268254BDA6142681A6282685A62C2689A627A
:402280000269DA6242691A6382695A63C2699A631E4A916AD963D16A1964516A5964516B9964926BDA64F1EE103A13F0900F27D0026A154B1A65426A5A65826A9A65C26A2D
:4022C000DA65026B1A66426B5A66826B9A66C26BDA66026C1A67426C5A67826C9A67C26CDA67026DC3F88020426DC3F88420826DC3F88820C26DC3F88C20026EC3F8902094
:40230000FFF7B2FF08BD00BF104A020800ED00E00230800803D001300238FCD100BF00BF7047EFF3108072B6704780F310887047002800F0AC8070B40446002A00F0A9803F
:4023400092F828300BB1012500E00025137F0BB1022300E000231D431669B60406F4802645EA060395682D0405F440351D431668300600F0E0602843136B556B43EA4503AF
:402380001B0503F440130343906B43EA8000052E03D1D3681B029BB202E053681B029BB20343081D800123501368062B08D104EB81130120C3F808013F20C3F828011DE086
:4023C000936843B904EB81130020C3F808013120C3F8280112E0012B08D1506904EB8113C3F808011C20C3F8280107E004EB81130120C3F808011220C3F82801106A04EB65
:402400008113C3F80C01506AC3F810015069C3F814019069C3F81801136EB3F1FF3F17D0106C00F00F00966C360206F470663043156D2D0405F470250543906D000380B267
:4024400028431B01DBB2034304EB8110C0F82031D36B03F00303566C360106F030063343D56C2D0205F440752B43506D8001C0B21843D36D9B0003F00C03034304EB811469
:40248000C4F82431D36AC4F83831002002E002487047014870BC70470100B600014B1860704700BF2450020870B539B900240AE015F8010BFEF768FC013402E016460D46AE
:4024C0000024B442F4DB204670BD00BF70B561B900240FE0FEF764FCC0B2287001340A2808D00D2806D0013502E016460D460024B442EFDB204670BD38B50546044C0021BF
:402500002046FFF719FBA9682046FFF715FA38BD00001D4108B5074B5B6813F4802F04D001210448FFF750FB08BD00210148FFF74BFB08BD00001D4108B5084B1B7963B903
:4025400007490848FFF724FE044B5B792BB90122024B5A710448FFF7CFFF08BD344D02089925081088650810A06B081008B5084B1B7913F0010F06D1FFF7DEFF044A1379C8
:4025800043F0010313710348FFF70EFB08BD00BF344D020800001D4110B5094BD3F81042072C04D940F231610648FFF74FFE044BC3F81042D3F81022D3F8103210BD00BF1C
:4025C00000001D41646B081008B5084B1B783BB9074A00210748FFF7ABFE0122034B1A70044B01229A609A6108BD00BF3A4D0208286C0810000038402DE9F04F8BB004462A
:402600000D4600F055F8284B93F900A0BAF1FF3F06460F4612D022462B462046294601F091F8834650B94FF000084FF000092046294642464B4601F05DF820B93046394674
:402640000BB0BDE8F08F194BCDF820B00122CDE90445CDE902458DE80C00BAF1000F15D042464B464046494600F0FCFEBAF1020FCDE906010CD101F029FB21230360089B76
:4026800063B9DDE906010BB0BDE8F08FCDE90689684600F0CFF80028F1D1ECE701F016FB089B0360EDE700BFC84302088C6C08102DE9F0415E4EB6460E40764504460D4696
:4026C00000F0948000290B46024672DD0F157DD0A7F2FF37C3F31303F80743F4801363D403EBD27100260B447F105200B64616204FF400110EEB01049C424FEAD2754FEA17
:40270000420203DC1B1B04EB010E0E44013805EB43034FEA5101EDD1844620244FF0004109E020D003EBD275013C4FEA51012B444FEA420220D09E4501EB0C05F1DA002D20
:4027400005EB010C09DBF0469542CEEB030300D9013B521B0844C646E4E7BCF1000FF2DB0EF10108F0E795421CD8002D05EB010C48DB98460023ECE7134304D0411C45D017
:4027800000F00104204444087310F20703F17F5303F5001348BF44F0004403EB07512046BDE8F0817346BDE75B0003EBD273520096E721F00046064322D071BB0F46D30A3C
:4027C000153F5205002BFAD0DD0221D4002100E001465B00DC0201F10100F9D5C0F1200422FA04F423437F1A824071E702460B4600F00EFD22462B4600F058FBBDE8F0815B
:40280000BDE8F081BCF1000FAADAB2E70136BBE720244FF0FF310020E2E702460B4600F043FB02460B4600F01DFEBDE8F08100BF0000F07F002070472DE9F04F91B0059182
:4028400015460A920178089119090B91826802F114040694426802F10800079088010F9005EB81120D9203F00F030C939B000E93069B53F8142C019253F8102C029253F877
:402880000C2C039253F808BC53F8046C079B099353F8088C53F8047C0B9B002B00F0FA82059A02F140050A9A02F14004049355F840AC5146019801F0B9F8414600F0AEFFE4
:4028C00081465146029801F0B1F8394600F0A6FF07464946584601F0A9F8394600F09EFF80465146039801F0A1F8074644F8409C55F83CAC5146019801F098F8414600F0D6
:402900008DFF80464946304601F090F8394600F085FF07465146029801F088F80146384600F07CFF07464146584601F07FF8394600F074FF07465146039801F077F8824652
:4029400044F83C8C55F8389C4946019801F06EF8394600F063FF07464146304601F066F8514600F05BFF80464946029801F05EF80146404600F052FF80463946584601F050
:4029800055F8414600F04AFF80464946039801F04DF8824644F8387C55F8349C4946019801F044F8414600F039FF80463946304601F03CF8514600F031FF074649460298FE
:4029C00001F034F80146384600F028FF07464146584601F02BF8394600F020FF07464946039801F023F8824644F8348C55F8309C4946019801F01AF8394600F00FFF074675
:402A00004146304601F012F8514600F007FF80464946029801F00AF80146404600F0FEFE80463946584601F001F8414600F0F6FE80464946039800F0F9FF824644F8307CB6
:402A400055F82C9C4946019800F0F0FF414600F0E5FE80463946304600F0E8FF514600F0DDFE07464946029800F0E0FF0146384600F0D4FE07464146584600F0D7FF394669
:402A800000F0CCFE07464946039800F0CFFF824644F82C8C55F8289C4946019800F0C6FF394600F0BBFE07464146304600F0BEFF514600F0B3FE80464946029800F0B6FF92
:402AC0000146404600F0AAFE80463946584600F0ADFF414600F0A2FE80464946039800F0A5FF824644F8287C55F8249C4946019800F09CFF414600F091FE8046394630462E
:402B000000F094FF514600F089FE07464946029800F08CFF0146384600F080FE07464146584600F083FF394600F078FE07464946039800F07BFF824644F8248C55F8209C79
:402B40004946019800F072FF394600F067FE07464146304600F06AFF514600F05FFE80464946029800F062FF0146404600F056FE80463946584600F059FF414600F04EFE32
:402B800080464946039800F051FF824644F8207C55F81C9C4946019800F048FF414600F03DFE80463946304600F040FF514600F035FE07464946029800F038FF0146384629
:402BC00000F02CFE07464146584600F02FFF394600F024FE07464946039800F027FF824644F81C8C55F8189C4946019800F01EFF394600F013FE07464146304600F016FF5C
:402C0000514600F00BFE80464946029800F00EFF0146404600F002FE80463946584600F005FF414600F0FAFD80464946039800F0FDFE824644F8187C55F8149C494601987E
:402C400000F0F4FE414600F0E9FD80463946304600F0ECFE514600F0E1FD07464946029800F0E4FE0146384600F0D8FD07464146584600F0DBFE394600F0D0FD07464946F6
:402C8000039800F0D3FE824644F8148C55F8109C4946019800F0CAFE394600F0BFFD07464146304600F0C2FE514600F0B7FD80464946029800F0BAFE0146404600F0AEFDDC
:402CC00080463946584600F0B1FE414600F0A6FD80464946039800F0A9FE824644F8107C55F80C9C4946019800F0A0FE414600F095FD80463946304600F098FE514600F0A5
:402D00008DFD07464946029800F090FE0146384600F084FD07464146584600F087FE394600F07CFD07464946039800F07FFE814644F80C8C55F808AC5146019800F076FEFC
:402D4000394600F06BFD07464146304600F06EFE494600F063FD80465146029800F066FE0146404600F05AFD80463946584600F05DFE414600F052FD81465146039800F0BB
:402D800055FE804644F8087C55F804AC5146019800F04CFE494600F041FD81463946304600F044FE414600F039FD07465146029800F03CFE0146384600F030FD0746494615
:402DC000584600F033FE394600F028FD80465146039800F02BFE07464946304600F026FE394600F01BFD074644F8049C40354034049B013B04937FF45AAD059B0F9A1344E4
:402E00000593DDF834900C9B002B31D0059B0E9903EB010ACDF810B09B465BF8045B2946019800F003FE414600F0F8FC04462946029800F0FBFD394600F0F0FC0746214688
:402E4000049800F0F3FD394600F0E8FC80462946039800F0EBFD05462146304600F0E6FD294600F0DBFC074649F8044BD345D4D1099B43F8088C43F8047C069B1433069361
:402E8000079B08330793089B013B089305D00A9B0593EDE4DDF82890B5E711B0BDE8F08F81F0004102E000BF83F0004330B54FEA41044FEA430594EA050F08BF90EA020F5F
:402EC0001FBF54EA000C55EA020C7FEA645C7FEA655C00F0E2804FEA5454D4EB5555B8BF6D420CDD2C4480EA020281EA030382EA000083EA010180EA020281EA0303362DF3
:402F000088BF30BD11F0004F4FEA01314FF4801C4CEA113102D0404261EB410113F0004F4FEA03334CEA133302D0524263EB430394EA050F00F0A780A4F10104D5F1200EFB
:402F40000DDB02FA0EFC22FA05F2801841F1000103FA0EF2801843FA05F359410EE0A5F120050EF1200E012A03FA0EFC28BF4CF0020C43FA05F3C01851EBE37101F0004515
:402F800007D54FF0000EDCF1000C7EEB00006EEB0101B1F5801F1BD3B1F5001F0CD349085FEA30004FEA3C0C04F101044FEA445212F5800F80F09A80BCF1004F08BF5FEA34
:402FC000500C50F1000041EB045141EA050130BD5FEA4C0C404141EB010111F4801FA4F10104E9D191F0000F04BF01460020B1FA81F308BF2033A3F10B03B3F120020CDA0C
:403000000C3208DD02F1140CC2F10C0201FA0CF021FA02F10CE002F11402D8BFC2F1200C01FA02F120FA0CFCDCBF41EA0C019040E41AA2BF01EB0451294330BD6FEA04041C
:403040001F3C1CDA0C340EDC04F11404C4F1200220FA04F001FA02F340EA030021FA04F345EA030130BDC4F10C04C4F1200220FA02F001FA04F340EA0300294630BD21FA56
:4030800004F0294630BD94F0000F83F4801306BF81F480110134013D4EE77FEA645C18BF7FEA655C29D094EA050F08BF90EA020F05D054EA000C04BF1946104630BD91EAAA
:4030C000030F1EBF0021002030BD5FEA545C05D14000494128BF41F0004130BD14F580043CBF01F5801130BD01F0004545F0FE4141F470014FF0000030BD7FEA645C1ABF5A
:40310000194610467FEA655C1CBF0B46024650EA013406BF52EA033591EA030F41F4002130BD00BF90F0000F04BF0021704730B54FF4806404F132044FF000054FF0000120
:4031400050E700BF90F0000F04BF0021704730B54FF4806404F1320410F0004548BF40424FF000013EE700BF42004FEAE2014FEA31014FEA02701FBF12F07F4393F07F4F9F
:4031800081F06051704792F0000F14BF93F07F4F704730B54FF4607401F0004521F0004120E700BF50EA010208BF704730B54FF000050AE050EA010208BF704730B511F011
:4031C000004502D5404261EB41014FF4806404F132045FEA915C3FF4DCAE4FF003025FEADC0C18BF03325FEADC0C18BF033202EBDC02C2F1200300FA03FC20FA02F001FAFF
:4032000003FE40EA0E0021FA02F11444C1E600BF70B54FF0FF0C4CF4E06C1CEA11541DBF1CEA135594EA0C0F95EA0C0F00F0DEF82C4481EA030621EA4C5123EA4C5350EA6E
:40324000013518BF52EA033541F4801143F4801338D0A0FB02CE4FF00005E1FB02E506F00042E0FB03E54FF00006E1FB03569CF0000F18BF4EF0010EA4F1FF04B6F5007FCD
:4032800064F5407404D25FEA4E0E6D4146EB060642EAC62141EA55514FEAC52040EA5E504FEACE2EB4F1FD0C88BFBCF5E06F1ED8BEF1004F08BF5FEA500E50F1000041EBC8
:4032C000045170BD06F0004646EA010140EA020081EA0301B4EB5C04C2BFD4EB0C0541EA045170BD41F480114FF0000E013C00F3AB8014F1360FDEBF002001F0004170BD72
:40330000C4F10004203C35DA0C341BDC04F11404C4F1200500FA05F320FA04F001FA05F240EA020001F0004221F0004110EBD37021FA04F642EB06015EEA430E08BF20EAB7
:40334000D37070BDC4F10C04C4F1200500FA04F320FA05F001FA04F240EA020001F0004110EBD37041F100015EEA430E08BF20EAD37070BDC4F1200500FA05F24EEA020E91
:4033800020FA04F301FA05F243EA020321FA04F001F0004121FA04F220EA020000EBD3705EEA430E08BF20EAD37070BD94F0000F0FD101F00046400041EB010111F4801FB6
:4033C00008BF013CF7D041EA060195F0000F18BF704703F00046520043EB030313F4801F08BF013DF7D043EA0603704794EA0C0F0CEA135518BF95EA0C0F0CD050EA4106CB
:4034000018BF52EA4306D1D181EA030101F000414FF0000070BD50EA410606BF1046194652EA430619D094EA0C0F02D150EA013613D195EA0C0F05D152EA03361CBF104641
:4034400019460AD181EA030101F0004141F0FE4141F470014FF0000070BD41F0FE4141F4780170BD70B54FF0FF0C4CF4E06C1CEA11541DBF1CEA135594EA0C0F95EA0C0FC1
:4034800000F0A7F8A4EB050481EA030E52EA03354FEA013100F088804FEA03334FF0805545EA131343EA12634FEA022245EA111545EA10654FEA00260EF000419D4208BF7E
:4034C000964244F1FD0404F5407402D25B084FEA3202B61A65EB03055B084FEA32024FF480104FF4002CB6EB020E75EB030E22BFB61A754640EA0C005B084FEA3202B6EBFE
:40350000020E75EB030E22BFB61A754640EA5C005B084FEA3202B6EB020E75EB030E22BFB61A754640EA9C005B084FEA3202B6EB020E75EB030E22BFB61A754640EADC0090
:4035400055EA060E18D04FEA051545EA16754FEA06164FEAC30343EA52734FEAC2025FEA1C1CC0D111F4801F0BD141EA00014FF000004FF0004CB6E711F4801F04BF0143F0
:403580000020B4F1FD0C88BFBCF5E06F3FF6AFAEB5EB030C04BFB6EB020C5FEA500C50F1000041EB045170BD0EF0004E4EEA113114EB5C04C2BFD4EB0C0541EA045170BD8C
:4035C00041F480114FF0000E013C90E645EA060E8DE60CEA135594EA0C0F08BF95EA0C0F3FF43BAF94EA0C0F0AD150EA01347FF434AF95EA0C0F7FF425AF104619462CE7F8
:4036000095EA0C0F06D152EA03353FF4FDAE1046194622E750EA410618BF52EA43067FF4C5AE50EA41047FF40DAF52EA43057FF4EBAE12E74FF0FF3C06E000BF4FF0010CA4
:4036400002E000BF4FF0010C4DF804CD4FEA410C7FEA6C5C4FEA430C18BF7FEA6C5C1BD001B050EA410C0CBF52EA430C91EA030F02BF90EA020F0020704710F1000F91EA4C
:40368000030F58BF994208BF90422CBFD8176FEAE37040F0010070474FEA410C7FEA6C5C02D150EA013C07D14FEA430C7FEA6C5CD6D152EA033CD3D05DF8040B704700BFCE
:4036C0008446104662468C461946634600E000BF01B5FFF7B7FF002848BF10F1000F01BD4DF808EDFFF7F4FF0CBF012000205DF808FB00BF4DF808EDFFF7EAFF34BF0120B7
:4037000000205DF808FB00BF4DF808EDFFF7E0FF94BF012000205DF808FB00BF4DF808EDFFF7CEFF94BF012000205DF808FB00BF4DF808EDFFF7C4FF34BF012000205DF874
:4037400008FB00BF4FEA410C7FEA6C5C02D150EA013C0AD14FEA430C7FEA6C5C02D152EA033C02D14FF0000070474FF0010070474FEA4102B2F1E04324BFB3F5001CDCF12E
:40378000FE5C0DD901F0004C4FEAC0024CEA5070B2F1004F40EB830008BF20F00100704711F0804F21D113F13872BCBF01F00040704741F480114FEA5252C2F11802C2F176
:4037C000200C10FA0CF320FA02F018BF40F001004FEAC1234FEAD32303FA0CFC40EA0C0023FA02F34FEA4303CCE77FEA625307D150EA01331EBF4FF0FE4040F440007047CC
:4038000001F0004040F0FE4040F40000704700BF80F0004002E000BF81F0004142001FBF5FEA410392EA030F7FEA226C7FEA236C6AD04FEA1262D2EB1363C1BFD21841400D
:4038400048404140B8BF5B42192B88BF704710F0004F40F4000020F07F4018BF404211F0004F41F4000121F07F4118BF494292EA030F3FD0A2F1010241FA03FC10EB0C0011
:40388000C3F1200301FA03F100F0004302D5494260EB4000B0F5000F13D3B0F1807F06D340084FEA310102F10102FE2A51D2B1F1004F40EBC25008BF20F0010040EA0300E8
:4038C0007047490040EB000010F4000FA2F10102EDD1B0FA80FCACF1080CB2EB0C0200FA0CF0AABF00EBC25052421843BCBFD0401843704792F0000F81F4000106BF80F48C
:4039000000000132013BB5E74FEA41037FEA226C18BF7FEA236C21D092EA030F04D092F0000F08BF0846704790EA010F1CBF0020704712F07F4F04D1400028BF40F0004011
:40394000704712F100723CBF00F50000704700F0004343F0FE4040F4000070477FEA226216BF08467FEA23630146420206BF5FEA412390EA010F40F4800070474FF00003B2
:4039800004E000BF10F0004348BF40425FEA000C08BF704743F0964301464FF000001CE050EA010208BF70474FF000030AE000BF50EA010208BF704711F0004302D5404239
:4039C00061EB41015FEA010C02BF84460146002043F0B64308BFA3F18053A3F50003BCFA8CF2083AA3EBC25310DB01FA02FC634400FA02FCC2F12002BCF1004F20FA02F281
:403A000043EB020008BF20F00100704702F1200201FA02FCC2F1200250EA4C0021FA02F243EB020008BF20EADC7070474FF0FF0C1CEAD0521EBF1CEAD15392EA0C0F93EABE
:403A40000C0F6FD01A4480EA010C400218BF5FEA41211ED04FF0006343EA501043EA5111A0FB01310CF00040B1F5000F3EBF490041EAD3715B0040EA010062F17F02FD2AB3
:403A80001DD8B3F1004F40EBC25008BF20F00100704790F0000F0CF0004C08BF49024CEA502040EA51207F3AC2BFD2F1FF0340EAC250704740F400004FF00003013A5DDC4C
:403AC00012F1190FDCBF00F000407047C2F10002410021FA02F1C2F1200200FA02FC5FEA310040F1000053EA4C0308BF20EADC70704792F0000F00F0004C02BF400010F46B
:403B0000000F013AF9D040EA0C0093F0000F01F0004C02BF490011F4000F013BF9D041EA0C018FE70CEAD15392EA0C0F18BF93EA0C0F0AD030F0004C18BF31F0004CD8D149
:403B400080EA010000F00040704790F0000F17BF90F0004F084691F0000F91F0004F14D092EA0C0F01D142020FD193EA0C0F03D14B0218BF084608D180EA010000F000404E
:403B800040F0FE4040F40000704740F0FE4040F4400070474FF0FF0C1CEAD0521EBF1CEAD15392EA0C0F93EA0C0F69D0A2EB030280EA010C49024FEA402037D04FF080532C
:403BC00043EA111143EA10130CF000408B4238BF5B0042F17D024FF4000C8B4224BF5B1A40EA0C00B3EB510F24BFA3EB510340EA5C00B3EB910F24BFA3EB910340EA9C001D
